{
    "_format": "hh-sol-artifact-1",
    "contractName": "Honestfil",
    "sourceName": "contracts/Honestfil.sol",
    "abi": [
        {
            "anonymous": false,
            "inputs": [
                {
                    "indexed": false,
                    "internalType": "uint256",
                    "name": "id",
                    "type": "uint256"
                },
                {
                    "indexed": false,
                    "internalType": "string",
                    "name": "name",
                    "type": "string"
                },
                {
                    "indexed": false,
                    "internalType": "address",
                    "name": "owner",
                    "type": "address"
                }
            ],
            "name": "NewProtocol",
            "type": "event"
        },
        {
            "inputs": [],
            "name": "getProtocols",
            "outputs": [
                {
                    "components": [
                        {
                            "internalType": "string",
                            "name": "name",
                            "type": "string"
                        },
                        {
                            "internalType": "string",
                            "name": "category",
                            "type": "string"
                        },
                        {
                            "internalType": "string",
                            "name": "urllogo",
                            "type": "string"
                        },
                        {
                            "internalType": "address",
                            "name": "addressVault",
                            "type": "address"
                        },
                        {
                            "internalType": "string",
                            "name": "urlWebsite",
                            "type": "string"
                        },
                        {
                            "internalType": "address",
                            "name": "owner",
                            "type": "address"
                        },
                        {
                            "internalType": "uint256",
                            "name": "id",
                            "type": "uint256"
                        }
                    ],
                    "internalType": "struct Honestfil.Protocol[]",
                    "name": "",
                    "type": "tuple[]"
                }
            ],
            "stateMutability": "view",
            "type": "function"
        },
        {
            "inputs": [],
            "name": "protocolCount",
            "outputs": [
                {
                    "internalType": "uint256",
                    "name": "",
                    "type": "uint256"
                }
            ],
            "stateMutability": "view",
            "type": "function"
        },
        {
            "inputs": [
                {
                    "internalType": "uint256",
                    "name": "",
                    "type": "uint256"
                }
            ],
            "name": "protocols",
            "outputs": [
                {
                    "internalType": "string",
                    "name": "name",
                    "type": "string"
                },
                {
                    "internalType": "string",
                    "name": "category",
                    "type": "string"
                },
                {
                    "internalType": "string",
                    "name": "urllogo",
                    "type": "string"
                },
                {
                    "internalType": "address",
                    "name": "addressVault",
                    "type": "address"
                },
                {
                    "internalType": "string",
                    "name": "urlWebsite",
                    "type": "string"
                },
                {
                    "internalType": "address",
                    "name": "owner",
                    "type": "address"
                },
                {
                    "internalType": "uint256",
                    "name": "id",
                    "type": "uint256"
                }
            ],
            "stateMutability": "view",
            "type": "function"
        },
        {
            "inputs": [
                {
                    "internalType": "string",
                    "name": "_name",
                    "type": "string"
                },
                {
                    "internalType": "string",
                    "name": "_category",
                    "type": "string"
                },
                {
                    "internalType": "string",
                    "name": "_urllogo",
                    "type": "string"
                },
                {
                    "internalType": "address",
                    "name": "_addressVault",
                    "type": "address"
                },
                {
                    "internalType": "string",
                    "name": "_urlWebsite",
                    "type": "string"
                }
            ],
            "name": "registerProtocol",
            "outputs": [],
            "stateMutability": "nonpayable",
            "type": "function"
        }
    ],
    "bytecode": "0x608060405234801561001057600080fd5b506113f4806100206000396000f3fe608060405234801561001057600080fd5b506004361061004c5760003560e01c80638c396220146100515780639e5d57ec14610087578063e2eed04f146100a3578063f434bb68146100c1575b600080fd5b61006b600480360381019061006691906109cc565b6100df565b60405161007e9796959493929190610ad9565b60405180910390f35b6100a1600480360381019061009c9190610cc5565b610381565b005b6100ab610547565b6040516100b89190610db0565b60405180910390f35b6100c961054d565b6040516100d69190610fa6565b60405180910390f35b600060205280600052604060002060009150905080600001805461010290610ff7565b80601f016020809104026020016040519081016040528092919081815260200182805461012e90610ff7565b801561017b5780601f106101505761010080835404028352916020019161017b565b820191906000526020600020905b81548152906001019060200180831161015e57829003601f168201915b50505050509080600101805461019090610ff7565b80601f01602080910402602001604051908101604052809291908181526020018280546101bc90610ff7565b80156102095780601f106101de57610100808354040283529160200191610209565b820191906000526020600020905b8154815290600101906020018083116101ec57829003601f168201915b50505050509080600201805461021e90610ff7565b80601f016020809104026020016040519081016040528092919081815260200182805461024a90610ff7565b80156102975780601f1061026c57610100808354040283529160200191610297565b820191906000526020600020905b81548152906001019060200180831161027a57829003601f168201915b5050505050908060030160009054906101000a900473ffffffffffffffffffffffffffffffffffffffff16908060040180546102d290610ff7565b80601f01602080910402602001604051908101604052809291908181526020018280546102fe90610ff7565b801561034b5780601f106103205761010080835404028352916020019161034b565b820191906000526020600020905b81548152906001019060200180831161032e57829003601f168201915b5050505050908060050160009054906101000a900473ffffffffffffffffffffffffffffffffffffffff16908060060154905087565b6001600081548092919061039490611057565b9190505550600060015490506040518060e001604052808781526020018681526020018581526020018473ffffffffffffffffffffffffffffffffffffffff1681526020018381526020013373ffffffffffffffffffffffffffffffffffffffff168152602001828152506000808381526020019081526020016000206000820151816000019081610426919061124b565b50602082015181600101908161043c919061124b565b506040820151816002019081610452919061124b565b5060608201518160030160006101000a81548173ffffffffffffffffffffffffffffffffffffffff021916908373ffffffffffffffffffffffffffffffffffffffff16021790555060808201518160040190816104af919061124b565b5060a08201518160050160006101000a81548173ffffffffffffffffffffffffffffffffffffffff021916908373ffffffffffffffffffffffffffffffffffffffff16021790555060c082015181600601559050507fac8634c2f61ba57e7a482750a2deb2425b2d270af1b1b2ee5cc7383a5a0043808187336040516105379392919061131d565b60405180910390a1505050505050565b60015481565b6060600060015467ffffffffffffffff81111561056d5761056c610b6e565b5b6040519080825280602002602001820160405280156105a657816020015b610593610919565b81526020019060019003908161058b5790505b5090506000600190505b6001548111610911576000808281526020019081526020016000206040518060e00160405290816000820180546105e690610ff7565b80601f016020809104026020016040519081016040528092919081815260200182805461061290610ff7565b801561065f5780601f106106345761010080835404028352916020019161065f565b820191906000526020600020905b81548152906001019060200180831161064257829003601f168201915b5050505050815260200160018201805461067890610ff7565b80601f01602080910402602001604051908101604052809291908181526020018280546106a490610ff7565b80156106f15780601f106106c6576101008083540402835291602001916106f1565b820191906000526020600020905b8154815290600101906020018083116106d457829003601f168201915b5050505050815260200160028201805461070a90610ff7565b80601f016020809104026020016040519081016040528092919081815260200182805461073690610ff7565b80156107835780601f1061075857610100808354040283529160200191610783565b820191906000526020600020905b81548152906001019060200180831161076657829003601f168201915b505050505081526020016003820160009054906101000a900473ffffffffffffffffffffffffffffffffffffffff1673ffffffffffffffffffffffffffffffffffffffff1673ffffffffffffffffffffffffffffffffffffffff1681526020016004820180546107f290610ff7565b80601f016020809104026020016040519081016040528092919081815260200182805461081e90610ff7565b801561086b5780601f106108405761010080835404028352916020019161086b565b820191906000526020600020905b81548152906001019060200180831161084e57829003601f168201915b505050505081526020016005820160009054906101000a900473ffffffffffffffffffffffffffffffffffffffff1673ffffffffffffffffffffffffffffffffffffffff1673ffffffffffffffffffffffffffffffffffffffff168152602001600682015481525050826001836108e2919061135b565b815181106108f3576108f261138f565b5b6020026020010181905250808061090990611057565b9150506105b0565b508091505090565b6040518060e00160405280606081526020016060815260200160608152602001600073ffffffffffffffffffffffffffffffffffffffff16815260200160608152602001600073ffffffffffffffffffffffffffffffffffffffff168152602001600081525090565b6000604051905090565b600080fd5b600080fd5b6000819050919050565b6109a981610996565b81146109b457600080fd5b50565b6000813590506109c6816109a0565b92915050565b6000602082840312156109e2576109e161098c565b5b60006109f0848285016109b7565b91505092915050565b600081519050919050565b600082825260208201905092915050565b60005b83811015610a33578082015181840152602081019050610a18565b60008484015250505050565b6000601f19601f8301169050919050565b6000610a5b826109f9565b610a658185610a04565b9350610a75818560208601610a15565b610a7e81610a3f565b840191505092915050565b600073ffffffffffffffffffffffffffffffffffffffff82169050919050565b6000610ab482610a89565b9050919050565b610ac481610aa9565b82525050565b610ad381610996565b82525050565b600060e0820190508181036000830152610af3818a610a50565b90508181036020830152610b078189610a50565b90508181036040830152610b1b8188610a50565b9050610b2a6060830187610abb565b8181036080830152610b3c8186610a50565b9050610b4b60a0830185610abb565b610b5860c0830184610aca565b98975050505050505050565b600080fd5b600080fd5b7f4e487b7100000000000000000000000000000000000000000000000000000000600052604160045260246000fd5b610ba682610a3f565b810181811067ffffffffffffffff82111715610bc557610bc4610b6e565b5b80604052505050565b6000610bd8610982565b9050610be48282610b9d565b919050565b600067ffffffffffffffff821115610c0457610c03610b6e565b5b610c0d82610a3f565b9050602081019050919050565b82818337600083830152505050565b6000610c3c610c3784610be9565b610bce565b905082815260208101848484011115610c5857610c57610b69565b5b610c63848285610c1a565b509392505050565b600082601f830112610c8057610c7f610b64565b5b8135610c90848260208601610c29565b91505092915050565b610ca281610aa9565b8114610cad57600080fd5b50565b600081359050610cbf81610c99565b92915050565b600080600080600060a08688031215610ce157610ce061098c565b5b600086013567ffffffffffffffff811115610cff57610cfe610991565b5b610d0b88828901610c6b565b955050602086013567ffffffffffffffff811115610d2c57610d2b610991565b5b610d3888828901610c6b565b945050604086013567ffffffffffffffff811115610d5957610d58610991565b5b610d6588828901610c6b565b9350506060610d7688828901610cb0565b925050608086013567ffffffffffffffff811115610d9757610d96610991565b5b610da388828901610c6b565b9150509295509295909350565b6000602082019050610dc56000830184610aca565b92915050565b600081519050919050565b600082825260208201905092915050565b6000819050602082019050919050565b600082825260208201905092915050565b6000610e13826109f9565b610e1d8185610df7565b9350610e2d818560208601610a15565b610e3681610a3f565b840191505092915050565b610e4a81610aa9565b82525050565b610e5981610996565b82525050565b600060e0830160008301518482036000860152610e7c8282610e08565b91505060208301518482036020860152610e968282610e08565b91505060408301518482036040860152610eb08282610e08565b9150506060830151610ec56060860182610e41565b5060808301518482036080860152610edd8282610e08565b91505060a0830151610ef260a0860182610e41565b5060c0830151610f0560c0860182610e50565b508091505092915050565b6000610f1c8383610e5f565b905092915050565b6000602082019050919050565b6000610f3c82610dcb565b610f468185610dd6565b935083602082028501610f5885610de7565b8060005b85811015610f945784840389528151610f758582610f10565b9450610f8083610f24565b925060208a01995050600181019050610f5c565b50829750879550505050505092915050565b60006020820190508181036000830152610fc08184610f31565b905092915050565b7f4e487b7100000000000000000000000000000000000000000000000000000000600052602260045260246000fd5b6000600282049050600182168061100f57607f821691505b60208210810361102257611021610fc8565b5b50919050565b7f4e487b7100000000000000000000000000000000000000000000000000000000600052601160045260246000fd5b600061106282610996565b91507fffffffffffffffffffffffffffffffffffffffffffffffffffffffffffffffff820361109457611093611028565b5b600182019050919050565b60008190508160005260206000209050919050565b60006020601f8301049050919050565b600082821b905092915050565b6000600883026111017fffffffffffffffffffffffffffffffffffffffffffffffffffffffffffffffff826110c4565b61110b86836110c4565b95508019841693508086168417925050509392505050565b6000819050919050565b600061114861114361113e84610996565b611123565b610996565b9050919050565b6000819050919050565b6111628361112d565b61117661116e8261114f565b8484546110d1565b825550505050565b600090565b61118b61117e565b611196818484611159565b505050565b5b818110156111ba576111af600082611183565b60018101905061119c565b5050565b601f8211156111ff576111d08161109f565b6111d9846110b4565b810160208510156111e8578190505b6111fc6111f4856110b4565b83018261119b565b50505b505050565b600082821c905092915050565b600061122260001984600802611204565b1980831691505092915050565b600061123b8383611211565b9150826002028217905092915050565b611254826109f9565b67ffffffffffffffff81111561126d5761126c610b6e565b5b6112778254610ff7565b6112828282856111be565b600060209050601f8311600181146112b557600084156112a3578287015190505b6112ad858261122f565b865550611315565b601f1984166112c38661109f565b60005b828110156112eb578489015182556001820191506020850194506020810190506112c6565b868310156113085784890151611304601f891682611211565b8355505b6001600288020188555050505b505050505050565b60006060820190506113326000830186610aca565b81810360208301526113448185610a50565b90506113536040830184610abb565b949350505050565b600061136682610996565b915061137183610996565b925082820390508181111561138957611388611028565b5b92915050565b7f4e487b7100000000000000000000000000000000000000000000000000000000600052603260045260246000fdfea264697066735822122038256e0ce46ed3431e8d766fad024aadbbdcf91598f0d928d29f42a65e1036c764736f6c63430008110033",
    "linkReferences": {},
    "deployedLinkReferences": {}
}