{
  "_format": "hh-sol-artifact-1",
  "contractName": "Honestfil",
  "sourceName": "contracts/Honestfil.sol",
  "abi": [
    {
      "anonymous": false,
      "inputs": [
        {
          "indexed": false,
          "internalType": "uint256",
          "name": "id",
          "type": "uint256"
        },
        {
          "indexed": false,
          "internalType": "string",
          "name": "protocolName",
          "type": "string"
        },
        {
          "indexed": false,
          "internalType": "uint256",
          "name": "minReserve",
          "type": "uint256"
        },
        {
          "indexed": false,
          "internalType": "address",
          "name": "owner",
          "type": "address"
        }
      ],
      "name": "AlertCreated",
      "type": "event"
    },
    {
      "anonymous": false,
      "inputs": [
        {
          "indexed": false,
          "internalType": "uint256",
          "name": "id",
          "type": "uint256"
        }
      ],
      "name": "AlertDeleted",
      "type": "event"
    },
    {
      "anonymous": false,
      "inputs": [
        {
          "indexed": false,
          "internalType": "uint256",
          "name": "id",
          "type": "uint256"
        },
        {
          "indexed": false,
          "internalType": "uint256",
          "name": "minReserve",
          "type": "uint256"
        }
      ],
      "name": "AlertEdited",
      "type": "event"
    },
    {
      "anonymous": false,
      "inputs": [
        {
          "indexed": false,
          "internalType": "uint256",
          "name": "id",
          "type": "uint256"
        }
      ],
      "name": "AlertPaused",
      "type": "event"
    },
    {
      "anonymous": false,
      "inputs": [
        {
          "indexed": false,
          "internalType": "uint256",
          "name": "id",
          "type": "uint256"
        }
      ],
      "name": "IsFavorite",
      "type": "event"
    },
    {
      "anonymous": false,
      "inputs": [
        {
          "indexed": false,
          "internalType": "uint256",
          "name": "id",
          "type": "uint256"
        },
        {
          "indexed": false,
          "internalType": "string",
          "name": "name",
          "type": "string"
        },
        {
          "indexed": false,
          "internalType": "address",
          "name": "owner",
          "type": "address"
        }
      ],
      "name": "NewProtocol",
      "type": "event"
    },
    {
      "inputs": [],
      "name": "alertCount",
      "outputs": [
        {
          "internalType": "uint256",
          "name": "",
          "type": "uint256"
        }
      ],
      "stateMutability": "view",
      "type": "function"
    },
    {
      "inputs": [
        {
          "internalType": "uint256",
          "name": "",
          "type": "uint256"
        }
      ],
      "name": "alerts",
      "outputs": [
        {
          "internalType": "string",
          "name": "protocolName",
          "type": "string"
        },
        {
          "internalType": "uint256",
          "name": "minReserve",
          "type": "uint256"
        },
        {
          "internalType": "address",
          "name": "owner",
          "type": "address"
        },
        {
          "internalType": "bool",
          "name": "isActive",
          "type": "bool"
        },
        {
          "internalType": "bool",
          "name": "isFavorite",
          "type": "bool"
        },
        {
          "internalType": "uint256",
          "name": "id",
          "type": "uint256"
        }
      ],
      "stateMutability": "view",
      "type": "function"
    },
    {
      "inputs": [
        {
          "internalType": "string",
          "name": "_protocolName",
          "type": "string"
        },
        {
          "internalType": "uint256",
          "name": "_minReserve",
          "type": "uint256"
        }
      ],
      "name": "createAlert",
      "outputs": [],
      "stateMutability": "nonpayable",
      "type": "function"
    },
    {
      "inputs": [
        {
          "internalType": "uint256",
          "name": "_alertId",
          "type": "uint256"
        }
      ],
      "name": "deleteAlert",
      "outputs": [],
      "stateMutability": "nonpayable",
      "type": "function"
    },
    {
      "inputs": [
        {
          "internalType": "uint256",
          "name": "_alertId",
          "type": "uint256"
        },
        {
          "internalType": "uint256",
          "name": "_minReserve",
          "type": "uint256"
        }
      ],
      "name": "editAlert",
      "outputs": [],
      "stateMutability": "nonpayable",
      "type": "function"
    },
    {
      "inputs": [],
      "name": "getAlerts",
      "outputs": [
        {
          "components": [
            {
              "internalType": "string",
              "name": "protocolName",
              "type": "string"
            },
            {
              "internalType": "uint256",
              "name": "minReserve",
              "type": "uint256"
            },
            {
              "internalType": "address",
              "name": "owner",
              "type": "address"
            },
            {
              "internalType": "bool",
              "name": "isActive",
              "type": "bool"
            },
            {
              "internalType": "bool",
              "name": "isFavorite",
              "type": "bool"
            },
            {
              "internalType": "uint256",
              "name": "id",
              "type": "uint256"
            }
          ],
          "internalType": "struct Honestfil.Alert[]",
          "name": "",
          "type": "tuple[]"
        }
      ],
      "stateMutability": "view",
      "type": "function"
    },
    {
      "inputs": [],
      "name": "getProtocols",
      "outputs": [
        {
          "components": [
            {
              "internalType": "string",
              "name": "name",
              "type": "string"
            },
            {
              "internalType": "string",
              "name": "category",
              "type": "string"
            },
            {
              "internalType": "string",
              "name": "urllogo",
              "type": "string"
            },
            {
              "internalType": "address",
              "name": "addressVault",
              "type": "address"
            },
            {
              "internalType": "string",
              "name": "urlWebsite",
              "type": "string"
            },
            {
              "internalType": "address",
              "name": "owner",
              "type": "address"
            },
            {
              "internalType": "uint256",
              "name": "id",
              "type": "uint256"
            }
          ],
          "internalType": "struct Honestfil.Protocol[]",
          "name": "",
          "type": "tuple[]"
        }
      ],
      "stateMutability": "view",
      "type": "function"
    },
    {
      "inputs": [
        {
          "internalType": "uint256",
          "name": "_alertId",
          "type": "uint256"
        }
      ],
      "name": "isFavorite",
      "outputs": [],
      "stateMutability": "nonpayable",
      "type": "function"
    },
    {
      "inputs": [
        {
          "internalType": "uint256",
          "name": "_alertId",
          "type": "uint256"
        }
      ],
      "name": "pauseAlert",
      "outputs": [],
      "stateMutability": "nonpayable",
      "type": "function"
    },
    {
      "inputs": [],
      "name": "protocolCount",
      "outputs": [
        {
          "internalType": "uint256",
          "name": "",
          "type": "uint256"
        }
      ],
      "stateMutability": "view",
      "type": "function"
    },
    {
      "inputs": [
        {
          "internalType": "uint256",
          "name": "",
          "type": "uint256"
        }
      ],
      "name": "protocols",
      "outputs": [
        {
          "internalType": "string",
          "name": "name",
          "type": "string"
        },
        {
          "internalType": "string",
          "name": "category",
          "type": "string"
        },
        {
          "internalType": "string",
          "name": "urllogo",
          "type": "string"
        },
        {
          "internalType": "address",
          "name": "addressVault",
          "type": "address"
        },
        {
          "internalType": "string",
          "name": "urlWebsite",
          "type": "string"
        },
        {
          "internalType": "address",
          "name": "owner",
          "type": "address"
        },
        {
          "internalType": "uint256",
          "name": "id",
          "type": "uint256"
        }
      ],
      "stateMutability": "view",
      "type": "function"
    },
    {
      "inputs": [
        {
          "internalType": "string",
          "name": "_name",
          "type": "string"
        },
        {
          "internalType": "string",
          "name": "_category",
          "type": "string"
        },
        {
          "internalType": "string",
          "name": "_urllogo",
          "type": "string"
        },
        {
          "internalType": "address",
          "name": "_addressVault",
          "type": "address"
        },
        {
          "internalType": "string",
          "name": "_urlWebsite",
          "type": "string"
        }
      ],
      "name": "registerProtocol",
      "outputs": [],
      "stateMutability": "nonpayable",
      "type": "function"
    }
  ],
  "bytecode": "0x608060405234801561001057600080fd5b5061236b806100206000396000f3fe608060405234801561001057600080fd5b50600436106100b45760003560e01c8063ab44649111610071578063ab44649114610194578063d8649dfd146101b2578063e2eed04f146101ce578063f434bb68146101ec578063fa2450411461020a578063ff63ca3414610226576100b4565b8063171d073a146100b957806322a8cddc146100ee57806347cc94b51461010a578063497e4027146101265780638c396220146101425780639e5d57ec14610178575b600080fd5b6100d360048036038101906100ce9190611449565b610244565b6040516100e596959493929190611571565b60405180910390f35b61010860048036038101906101039190611449565b610342565b005b610124600480360381019061011f9190611449565b61044f565b005b610140600480360381019061013b9190611449565b6105b2565b005b61015c60048036038101906101579190611449565b61063e565b60405161016f97969594939291906115d9565b60405180910390f35b610192600480360381019061018d91906117c5565b6108e0565b005b61019c610aa6565b6040516101a991906118b0565b60405180910390f35b6101cc60048036038101906101c791906118cb565b610aac565b005b6101d6610c1a565b6040516101e391906118b0565b60405180910390f35b6101f4610c20565b6040516102019190611b02565b60405180910390f35b610224600480360381019061021f9190611b24565b610fec565b005b61022e6110e8565b60405161023b9190611cbe565b60405180910390f35b600260205280600052604060002060009150905080600001805461026790611d0f565b80601f016020809104026020016040519081016040528092919081815260200182805461029390611d0f565b80156102e05780601f106102b5576101008083540402835291602001916102e0565b820191906000526020600020905b8154815290600101906020018083116102c357829003601f168201915b5050505050908060010154908060020160009054906101000a900473ffffffffffffffffffffffffffffffffffffffff16908060020160149054906101000a900460ff16908060020160159054906101000a900460ff16908060030154905086565b3373ffffffffffffffffffffffffffffffffffffffff166002600083815260200190815260200160002060020160009054906101000a900473ffffffffffffffffffffffffffffffffffffffff1673ffffffffffffffffffffffffffffffffffffffff16146103e6576040517f08c379a00000000000000000000000000000000000000000000000000000000081526004016103dd90611db2565b60405180910390fd5b60006002600083815260200190815260200160002060020160146101000a81548160ff0219169083151502179055507f3a496bb1c11cfd1db745988f221fd4e65875a9655b42cc62113e7fcc9edccf208160405161044491906118b0565b60405180910390a150565b3373ffffffffffffffffffffffffffffffffffffffff166002600083815260200190815260200160002060020160009054906101000a900473ffffffffffffffffffffffffffffffffffffffff1673ffffffffffffffffffffffffffffffffffffffff16146104f3576040517f08c379a00000000000000000000000000000000000000000000000000000000081526004016104ea90611e44565b60405180910390fd5b600260008281526020019081526020016000206000808201600061051791906112e9565b60018201600090556002820160006101000a81549073ffffffffffffffffffffffffffffffffffffffff02191690556002820160146101000a81549060ff02191690556002820160156101000a81549060ff0219169055600382016000905550507fbdf2710e6ad3d141b6e20414649d1ccc85dc64d6fa1704e0551ec44b4f28657e816040516105a791906118b0565b60405180910390a150565b6002600082815260200190815260200160002060020160159054906101000a900460ff16156002600083815260200190815260200160002060020160156101000a81548160ff0219169083151502179055507fead36d4f4866af93faba043edc97f3e00a34f975934b2ac7069c9191f0a12cb58160405161063391906118b0565b60405180910390a150565b600060205280600052604060002060009150905080600001805461066190611d0f565b80601f016020809104026020016040519081016040528092919081815260200182805461068d90611d0f565b80156106da5780601f106106af576101008083540402835291602001916106da565b820191906000526020600020905b8154815290600101906020018083116106bd57829003601f168201915b5050505050908060010180546106ef90611d0f565b80601f016020809104026020016040519081016040528092919081815260200182805461071b90611d0f565b80156107685780601f1061073d57610100808354040283529160200191610768565b820191906000526020600020905b81548152906001019060200180831161074b57829003601f168201915b50505050509080600201805461077d90611d0f565b80601f01602080910402602001604051908101604052809291908181526020018280546107a990611d0f565b80156107f65780601f106107cb576101008083540402835291602001916107f6565b820191906000526020600020905b8154815290600101906020018083116107d957829003601f168201915b5050505050908060030160009054906101000a900473ffffffffffffffffffffffffffffffffffffffff169080600401805461083190611d0f565b80601f016020809104026020016040519081016040528092919081815260200182805461085d90611d0f565b80156108aa5780601f1061087f576101008083540402835291602001916108aa565b820191906000526020600020905b81548152906001019060200180831161088d57829003601f168201915b5050505050908060050160009054906101000a900473ffffffffffffffffffffffffffffffffffffffff16908060060154905087565b600160008154809291906108f390611e93565b9190505550600060015490506040518060e001604052808781526020018681526020018581526020018473ffffffffffffffffffffffffffffffffffffffff1681526020018381526020013373ffffffffffffffffffffffffffffffffffffffff1681526020018281525060008083815260200190815260200160002060008201518160000190816109859190612087565b50602082015181600101908161099b9190612087565b5060408201518160020190816109b19190612087565b5060608201518160030160006101000a81548173ffffffffffffffffffffffffffffffffffffffff021916908373ffffffffffffffffffffffffffffffffffffffff1602179055506080820151816004019081610a0e9190612087565b5060a08201518160050160006101000a81548173ffffffffffffffffffffffffffffffffffffffff021916908373ffffffffffffffffffffffffffffffffffffffff16021790555060c082015181600601559050507fac8634c2f61ba57e7a482750a2deb2425b2d270af1b1b2ee5cc7383a5a004380818733604051610a9693929190612159565b60405180910390a1505050505050565b60035481565b6001600354610abb9190612197565b600381905550600060035490506040518060c001604052808481526020018381526020013373ffffffffffffffffffffffffffffffffffffffff16815260200160011515815260200160001515815260200182815250600260008381526020019081526020016000206000820151816000019081610b399190612087565b506020820151816001015560408201518160020160006101000a81548173ffffffffffffffffffffffffffffffffffffffff021916908373ffffffffffffffffffffffffffffffffffffffff16021790555060608201518160020160146101000a81548160ff02191690831515021790555060808201518160020160156101000a81548160ff02191690831515021790555060a082015181600301559050507f639f6821e15398c246cf1d911a9613565bf49f97137b42eee402d2dee6e27f5781848433604051610c0d94939291906121cb565b60405180910390a1505050565b60015481565b6060600060015467ffffffffffffffff811115610c4057610c3f61166e565b5b604051908082528060200260200182016040528015610c7957816020015b610c66611329565b815260200190600190039081610c5e5790505b5090506000600190505b6001548111610fe4576000808281526020019081526020016000206040518060e0016040529081600082018054610cb990611d0f565b80601f0160208091040260200160405190810160405280929190818152602001828054610ce590611d0f565b8015610d325780601f10610d0757610100808354040283529160200191610d32565b820191906000526020600020905b815481529060010190602001808311610d1557829003601f168201915b50505050508152602001600182018054610d4b90611d0f565b80601f0160208091040260200160405190810160405280929190818152602001828054610d7790611d0f565b8015610dc45780601f10610d9957610100808354040283529160200191610dc4565b820191906000526020600020905b815481529060010190602001808311610da757829003601f168201915b50505050508152602001600282018054610ddd90611d0f565b80601f0160208091040260200160405190810160405280929190818152602001828054610e0990611d0f565b8015610e565780601f10610e2b57610100808354040283529160200191610e56565b820191906000526020600020905b815481529060010190602001808311610e3957829003601f168201915b505050505081526020016003820160009054906101000a900473ffffffffffffffffffffffffffffffffffffffff1673ffffffffffffffffffffffffffffffffffffffff1673ffffffffffffffffffffffffffffffffffffffff168152602001600482018054610ec590611d0f565b80601f0160208091040260200160405190810160405280929190818152602001828054610ef190611d0f565b8015610f3e5780601f10610f1357610100808354040283529160200191610f3e565b820191906000526020600020905b815481529060010190602001808311610f2157829003601f168201915b505050505081526020016005820160009054906101000a900473ffffffffffffffffffffffffffffffffffffffff1673ffffffffffffffffffffffffffffffffffffffff1673ffffffffffffffffffffffffffffffffffffffff16815260200160068201548152505082600183610fb59190612217565b81518110610fc657610fc561224b565b5b60200260200101819052508080610fdc90611e93565b915050610c83565b508091505090565b3373ffffffffffffffffffffffffffffffffffffffff166002600084815260200190815260200160002060020160009054906101000a900473ffffffffffffffffffffffffffffffffffffffff1673ffffffffffffffffffffffffffffffffffffffff1614611090576040517f08c379a0000000000000000000000000000000000000000000000000000000008152600401611087906122ec565b60405180910390fd5b8060026000848152602001908152602001600020600101819055507fdd684099acbc659701d588d010c0c46b0f38f51a5d6487d991a396e600dcba3682826040516110dc92919061230c565b60405180910390a15050565b6060600060035467ffffffffffffffff8111156111085761110761166e565b5b60405190808252806020026020018201604052801561114157816020015b61112e611392565b8152602001906001900390816111265790505b5090506000600190505b60035481116112e157600260008281526020019081526020016000206040518060c001604052908160008201805461118290611d0f565b80601f01602080910402602001604051908101604052809291908181526020018280546111ae90611d0f565b80156111fb5780601f106111d0576101008083540402835291602001916111fb565b820191906000526020600020905b8154815290600101906020018083116111de57829003601f168201915b50505050508152602001600182015481526020016002820160009054906101000a900473ffffffffffffffffffffffffffffffffffffffff1673ffffffffffffffffffffffffffffffffffffffff1673ffffffffffffffffffffffffffffffffffffffff1681526020016002820160149054906101000a900460ff161515151581526020016002820160159054906101000a900460ff16151515158152602001600382015481525050826001836112b29190612217565b815181106112c3576112c261224b565b5b602002602001018190525080806112d990611e93565b91505061114b565b508091505090565b5080546112f590611d0f565b6000825580601f106113075750611326565b601f01602090049060005260206000209081019061132591906113e2565b5b50565b6040518060e00160405280606081526020016060815260200160608152602001600073ffffffffffffffffffffffffffffffffffffffff16815260200160608152602001600073ffffffffffffffffffffffffffffffffffffffff168152602001600081525090565b6040518060c001604052806060815260200160008152602001600073ffffffffffffffffffffffffffffffffffffffff168152602001600015158152602001600015158152602001600081525090565b5b808211156113fb5760008160009055506001016113e3565b5090565b6000604051905090565b600080fd5b600080fd5b6000819050919050565b61142681611413565b811461143157600080fd5b50565b6000813590506114438161141d565b92915050565b60006020828403121561145f5761145e611409565b5b600061146d84828501611434565b91505092915050565b600081519050919050565b600082825260208201905092915050565b60005b838110156114b0578082015181840152602081019050611495565b60008484015250505050565b6000601f19601f8301169050919050565b60006114d882611476565b6114e28185611481565b93506114f2818560208601611492565b6114fb816114bc565b840191505092915050565b61150f81611413565b82525050565b600073ffffffffffffffffffffffffffffffffffffffff82169050919050565b600061154082611515565b9050919050565b61155081611535565b82525050565b60008115159050919050565b61156b81611556565b82525050565b600060c082019050818103600083015261158b81896114cd565b905061159a6020830188611506565b6115a76040830187611547565b6115b46060830186611562565b6115c16080830185611562565b6115ce60a0830184611506565b979650505050505050565b600060e08201905081810360008301526115f3818a6114cd565b9050818103602083015261160781896114cd565b9050818103604083015261161b81886114cd565b905061162a6060830187611547565b818103608083015261163c81866114cd565b905061164b60a0830185611547565b61165860c0830184611506565b98975050505050505050565b600080fd5b600080fd5b7f4e487b7100000000000000000000000000000000000000000000000000000000600052604160045260246000fd5b6116a6826114bc565b810181811067ffffffffffffffff821117156116c5576116c461166e565b5b80604052505050565b60006116d86113ff565b90506116e4828261169d565b919050565b600067ffffffffffffffff8211156117045761170361166e565b5b61170d826114bc565b9050602081019050919050565b82818337600083830152505050565b600061173c611737846116e9565b6116ce565b90508281526020810184848401111561175857611757611669565b5b61176384828561171a565b509392505050565b600082601f8301126117805761177f611664565b5b8135611790848260208601611729565b91505092915050565b6117a281611535565b81146117ad57600080fd5b50565b6000813590506117bf81611799565b92915050565b600080600080600060a086880312156117e1576117e0611409565b5b600086013567ffffffffffffffff8111156117ff576117fe61140e565b5b61180b8882890161176b565b955050602086013567ffffffffffffffff81111561182c5761182b61140e565b5b6118388882890161176b565b945050604086013567ffffffffffffffff8111156118595761185861140e565b5b6118658882890161176b565b9350506060611876888289016117b0565b925050608086013567ffffffffffffffff8111156118975761189661140e565b5b6118a38882890161176b565b9150509295509295909350565b60006020820190506118c56000830184611506565b92915050565b600080604083850312156118e2576118e1611409565b5b600083013567ffffffffffffffff811115611900576118ff61140e565b5b61190c8582860161176b565b925050602061191d85828601611434565b9150509250929050565b600081519050919050565b600082825260208201905092915050565b6000819050602082019050919050565b600082825260208201905092915050565b600061196f82611476565b6119798185611953565b9350611989818560208601611492565b611992816114bc565b840191505092915050565b6119a681611535565b82525050565b6119b581611413565b82525050565b600060e08301600083015184820360008601526119d88282611964565b915050602083015184820360208601526119f28282611964565b91505060408301518482036040860152611a0c8282611964565b9150506060830151611a21606086018261199d565b5060808301518482036080860152611a398282611964565b91505060a0830151611a4e60a086018261199d565b5060c0830151611a6160c08601826119ac565b508091505092915050565b6000611a7883836119bb565b905092915050565b6000602082019050919050565b6000611a9882611927565b611aa28185611932565b935083602082028501611ab485611943565b8060005b85811015611af05784840389528151611ad18582611a6c565b9450611adc83611a80565b925060208a01995050600181019050611ab8565b50829750879550505050505092915050565b60006020820190508181036000830152611b1c8184611a8d565b905092915050565b60008060408385031215611b3b57611b3a611409565b5b6000611b4985828601611434565b9250506020611b5a85828601611434565b9150509250929050565b600081519050919050565b600082825260208201905092915050565b6000819050602082019050919050565b611b9981611556565b82525050565b600060c0830160008301518482036000860152611bbc8282611964565b9150506020830151611bd160208601826119ac565b506040830151611be4604086018261199d565b506060830151611bf76060860182611b90565b506080830151611c0a6080860182611b90565b5060a0830151611c1d60a08601826119ac565b508091505092915050565b6000611c348383611b9f565b905092915050565b6000602082019050919050565b6000611c5482611b64565b611c5e8185611b6f565b935083602082028501611c7085611b80565b8060005b85811015611cac5784840389528151611c8d8582611c28565b9450611c9883611c3c565b925060208a01995050600181019050611c74565b50829750879550505050505092915050565b60006020820190508181036000830152611cd88184611c49565b905092915050565b7f4e487b7100000000000000000000000000000000000000000000000000000000600052602260045260246000fd5b60006002820490506001821680611d2757607f821691505b602082108103611d3a57611d39611ce0565b5b50919050565b7f536f6c6f20656c2070726f706965746172696f20707565646520706f6e65722060008201527f6c6120616c6572746120656e2070617573610000000000000000000000000000602082015250565b6000611d9c603283611481565b9150611da782611d40565b604082019050919050565b60006020820190508181036000830152611dcb81611d8f565b9050919050565b7f536f6c6f20656c2070726f706965746172696f20707565646520656c696d696e60008201527f6172206c6120616c657274610000000000000000000000000000000000000000602082015250565b6000611e2e602c83611481565b9150611e3982611dd2565b604082019050919050565b60006020820190508181036000830152611e5d81611e21565b9050919050565b7f4e487b7100000000000000000000000000000000000000000000000000000000600052601160045260246000fd5b6000611e9e82611413565b91507fffffffffffffffffffffffffffffffffffffffffffffffffffffffffffffffff8203611ed057611ecf611e64565b5b600182019050919050565b60008190508160005260206000209050919050565b60006020601f8301049050919050565b600082821b905092915050565b600060088302611f3d7fffffffffffffffffffffffffffffffffffffffffffffffffffffffffffffffff82611f00565b611f478683611f00565b95508019841693508086168417925050509392505050565b6000819050919050565b6000611f84611f7f611f7a84611413565b611f5f565b611413565b9050919050565b6000819050919050565b611f9e83611f69565b611fb2611faa82611f8b565b848454611f0d565b825550505050565b600090565b611fc7611fba565b611fd2818484611f95565b505050565b5b81811015611ff657611feb600082611fbf565b600181019050611fd8565b5050565b601f82111561203b5761200c81611edb565b61201584611ef0565b81016020851015612024578190505b61203861203085611ef0565b830182611fd7565b50505b505050565b600082821c905092915050565b600061205e60001984600802612040565b1980831691505092915050565b6000612077838361204d565b9150826002028217905092915050565b61209082611476565b67ffffffffffffffff8111156120a9576120a861166e565b5b6120b38254611d0f565b6120be828285611ffa565b600060209050601f8311600181146120f157600084156120df578287015190505b6120e9858261206b565b865550612151565b601f1984166120ff86611edb565b60005b8281101561212757848901518255600182019150602085019450602081019050612102565b868310156121445784890151612140601f89168261204d565b8355505b6001600288020188555050505b505050505050565b600060608201905061216e6000830186611506565b818103602083015261218081856114cd565b905061218f6040830184611547565b949350505050565b60006121a282611413565b91506121ad83611413565b92508282019050808211156121c5576121c4611e64565b5b92915050565b60006080820190506121e06000830187611506565b81810360208301526121f281866114cd565b90506122016040830185611506565b61220e6060830184611547565b95945050505050565b600061222282611413565b915061222d83611413565b925082820390508181111561224557612244611e64565b5b92915050565b7f4e487b7100000000000000000000000000000000000000000000000000000000600052603260045260246000fd5b7f536f6c6f20656c2070726f706965746172696f2070756564652065646974617260008201527f206c6120616c6572746100000000000000000000000000000000000000000000602082015250565b60006122d6602a83611481565b91506122e18261227a565b604082019050919050565b60006020820190508181036000830152612305816122c9565b9050919050565b60006040820190506123216000830185611506565b61232e6020830184611506565b939250505056fea26469706673582212208feb069dc2da01dedeaba5a6ea3847aff955c41cb20d724c3e0b4941a0e08f2664736f6c63430008110033",
  "linkReferences": {},
  "deployedLinkReferences": {}
}