{
  "_format": "hh-sol-artifact-1",
  "contractName": "Honestfil",
  "sourceName": "contracts/Honestfil.sol",
  "abi": [
    {
      "anonymous": false,
      "inputs": [
        {
          "indexed": false,
          "internalType": "uint256",
          "name": "id",
          "type": "uint256"
        },
        {
          "indexed": false,
          "internalType": "string",
          "name": "protocolName",
          "type": "string"
        },
        {
          "indexed": false,
          "internalType": "uint256",
          "name": "minReserve",
          "type": "uint256"
        },
        {
          "indexed": false,
          "internalType": "address",
          "name": "owner",
          "type": "address"
        }
      ],
      "name": "AlertCreated",
      "type": "event"
    },
    {
      "anonymous": false,
      "inputs": [
        {
          "indexed": false,
          "internalType": "uint256",
          "name": "id",
          "type": "uint256"
        }
      ],
      "name": "AlertDeleted",
      "type": "event"
    },
    {
      "anonymous": false,
      "inputs": [
        {
          "indexed": false,
          "internalType": "uint256",
          "name": "id",
          "type": "uint256"
        },
        {
          "indexed": false,
          "internalType": "uint256",
          "name": "minReserve",
          "type": "uint256"
        }
      ],
      "name": "AlertEdited",
      "type": "event"
    },
    {
      "anonymous": false,
      "inputs": [
        {
          "indexed": false,
          "internalType": "uint256",
          "name": "id",
          "type": "uint256"
        }
      ],
      "name": "AlertPaused",
      "type": "event"
    },
    {
      "anonymous": false,
      "inputs": [
        {
          "indexed": false,
          "internalType": "uint256",
          "name": "id",
          "type": "uint256"
        },
        {
          "indexed": false,
          "internalType": "string",
          "name": "name",
          "type": "string"
        },
        {
          "indexed": false,
          "internalType": "address",
          "name": "owner",
          "type": "address"
        }
      ],
      "name": "NewProtocol",
      "type": "event"
    },
    {
      "inputs": [],
      "name": "alertCount",
      "outputs": [
        {
          "internalType": "uint256",
          "name": "",
          "type": "uint256"
        }
      ],
      "stateMutability": "view",
      "type": "function"
    },
    {
      "inputs": [
        {
          "internalType": "uint256",
          "name": "",
          "type": "uint256"
        }
      ],
      "name": "alerts",
      "outputs": [
        {
          "internalType": "string",
          "name": "protocolName",
          "type": "string"
        },
        {
          "internalType": "uint256",
          "name": "minReserve",
          "type": "uint256"
        },
        {
          "internalType": "address",
          "name": "owner",
          "type": "address"
        },
        {
          "internalType": "bool",
          "name": "isActive",
          "type": "bool"
        },
        {
          "internalType": "uint256",
          "name": "id",
          "type": "uint256"
        }
      ],
      "stateMutability": "view",
      "type": "function"
    },
    {
      "inputs": [
        {
          "internalType": "string",
          "name": "_protocolName",
          "type": "string"
        },
        {
          "internalType": "uint256",
          "name": "_minReserve",
          "type": "uint256"
        }
      ],
      "name": "createAlert",
      "outputs": [],
      "stateMutability": "nonpayable",
      "type": "function"
    },
    {
      "inputs": [
        {
          "internalType": "uint256",
          "name": "_alertId",
          "type": "uint256"
        }
      ],
      "name": "deleteAlert",
      "outputs": [],
      "stateMutability": "nonpayable",
      "type": "function"
    },
    {
      "inputs": [
        {
          "internalType": "uint256",
          "name": "_alertId",
          "type": "uint256"
        },
        {
          "internalType": "uint256",
          "name": "_minReserve",
          "type": "uint256"
        }
      ],
      "name": "editAlert",
      "outputs": [],
      "stateMutability": "nonpayable",
      "type": "function"
    },
    {
      "inputs": [],
      "name": "getAlerts",
      "outputs": [
        {
          "components": [
            {
              "internalType": "string",
              "name": "protocolName",
              "type": "string"
            },
            {
              "internalType": "uint256",
              "name": "minReserve",
              "type": "uint256"
            },
            {
              "internalType": "address",
              "name": "owner",
              "type": "address"
            },
            {
              "internalType": "bool",
              "name": "isActive",
              "type": "bool"
            },
            {
              "internalType": "uint256",
              "name": "id",
              "type": "uint256"
            }
          ],
          "internalType": "struct Honestfil.Alert[]",
          "name": "",
          "type": "tuple[]"
        }
      ],
      "stateMutability": "view",
      "type": "function"
    },
    {
      "inputs": [],
      "name": "getProtocols",
      "outputs": [
        {
          "components": [
            {
              "internalType": "string",
              "name": "name",
              "type": "string"
            },
            {
              "internalType": "string",
              "name": "category",
              "type": "string"
            },
            {
              "internalType": "string",
              "name": "urllogo",
              "type": "string"
            },
            {
              "internalType": "address",
              "name": "addressVault",
              "type": "address"
            },
            {
              "internalType": "string",
              "name": "urlWebsite",
              "type": "string"
            },
            {
              "internalType": "address",
              "name": "owner",
              "type": "address"
            },
            {
              "internalType": "uint256",
              "name": "id",
              "type": "uint256"
            }
          ],
          "internalType": "struct Honestfil.Protocol[]",
          "name": "",
          "type": "tuple[]"
        }
      ],
      "stateMutability": "view",
      "type": "function"
    },
    {
      "inputs": [
        {
          "internalType": "uint256",
          "name": "_alertId",
          "type": "uint256"
        }
      ],
      "name": "pauseAlert",
      "outputs": [],
      "stateMutability": "nonpayable",
      "type": "function"
    },
    {
      "inputs": [],
      "name": "protocolCount",
      "outputs": [
        {
          "internalType": "uint256",
          "name": "",
          "type": "uint256"
        }
      ],
      "stateMutability": "view",
      "type": "function"
    },
    {
      "inputs": [
        {
          "internalType": "uint256",
          "name": "",
          "type": "uint256"
        }
      ],
      "name": "protocols",
      "outputs": [
        {
          "internalType": "string",
          "name": "name",
          "type": "string"
        },
        {
          "internalType": "string",
          "name": "category",
          "type": "string"
        },
        {
          "internalType": "string",
          "name": "urllogo",
          "type": "string"
        },
        {
          "internalType": "address",
          "name": "addressVault",
          "type": "address"
        },
        {
          "internalType": "string",
          "name": "urlWebsite",
          "type": "string"
        },
        {
          "internalType": "address",
          "name": "owner",
          "type": "address"
        },
        {
          "internalType": "uint256",
          "name": "id",
          "type": "uint256"
        }
      ],
      "stateMutability": "view",
      "type": "function"
    },
    {
      "inputs": [
        {
          "internalType": "string",
          "name": "_name",
          "type": "string"
        },
        {
          "internalType": "string",
          "name": "_category",
          "type": "string"
        },
        {
          "internalType": "string",
          "name": "_urllogo",
          "type": "string"
        },
        {
          "internalType": "address",
          "name": "_addressVault",
          "type": "address"
        },
        {
          "internalType": "string",
          "name": "_urlWebsite",
          "type": "string"
        }
      ],
      "name": "registerProtocol",
      "outputs": [],
      "stateMutability": "nonpayable",
      "type": "function"
    }
  ],
  "bytecode": "0x608060405234801561001057600080fd5b506121f1806100206000396000f3fe608060405234801561001057600080fd5b50600436106100a95760003560e01c8063ab44649111610071578063ab4464911461016c578063d8649dfd1461018a578063e2eed04f146101a6578063f434bb68146101c4578063fa245041146101e2578063ff63ca34146101fe576100a9565b8063171d073a146100ae57806322a8cddc146100e257806347cc94b5146100fe5780638c3962201461011a5780639e5d57ec14610150575b600080fd5b6100c860048036038101906100c39190611324565b61021c565b6040516100d995949392919061144c565b60405180910390f35b6100fc60048036038101906100f79190611324565b610307565b005b61011860048036038101906101139190611324565b610414565b005b610134600480360381019061012f9190611324565b610563565b60405161014797969594939291906114a6565b60405180910390f35b61016a60048036038101906101659190611692565b610805565b005b6101746109cb565b604051610181919061177d565b60405180910390f35b6101a4600480360381019061019f9190611798565b6109d1565b005b6101ae610b19565b6040516101bb919061177d565b60405180910390f35b6101cc610b1f565b6040516101d991906119cf565b60405180910390f35b6101fc60048036038101906101f791906119f1565b610eeb565b005b610206610fe7565b6040516102139190611b78565b60405180910390f35b600260205280600052604060002060009150905080600001805461023f90611bc9565b80601f016020809104026020016040519081016040528092919081815260200182805461026b90611bc9565b80156102b85780601f1061028d576101008083540402835291602001916102b8565b820191906000526020600020905b81548152906001019060200180831161029b57829003601f168201915b5050505050908060010154908060020160009054906101000a900473ffffffffffffffffffffffffffffffffffffffff16908060020160149054906101000a900460ff16908060030154905085565b3373ffffffffffffffffffffffffffffffffffffffff166002600083815260200190815260200160002060020160009054906101000a900473ffffffffffffffffffffffffffffffffffffffff1673ffffffffffffffffffffffffffffffffffffffff16146103ab576040517f08c379a00000000000000000000000000000000000000000000000000000000081526004016103a290611c6c565b60405180910390fd5b60006002600083815260200190815260200160002060020160146101000a81548160ff0219169083151502179055507f3a496bb1c11cfd1db745988f221fd4e65875a9655b42cc62113e7fcc9edccf2081604051610409919061177d565b60405180910390a150565b3373ffffffffffffffffffffffffffffffffffffffff166002600083815260200190815260200160002060020160009054906101000a900473ffffffffffffffffffffffffffffffffffffffff1673ffffffffffffffffffffffffffffffffffffffff16146104b8576040517f08c379a00000000000000000000000000000000000000000000000000000000081526004016104af90611cfe565b60405180910390fd5b60026000828152602001908152602001600020600080820160006104dc91906111cd565b60018201600090556002820160006101000a81549073ffffffffffffffffffffffffffffffffffffffff02191690556002820160146101000a81549060ff0219169055600382016000905550507fbdf2710e6ad3d141b6e20414649d1ccc85dc64d6fa1704e0551ec44b4f28657e81604051610558919061177d565b60405180910390a150565b600060205280600052604060002060009150905080600001805461058690611bc9565b80601f01602080910402602001604051908101604052809291908181526020018280546105b290611bc9565b80156105ff5780601f106105d4576101008083540402835291602001916105ff565b820191906000526020600020905b8154815290600101906020018083116105e257829003601f168201915b50505050509080600101805461061490611bc9565b80601f016020809104026020016040519081016040528092919081815260200182805461064090611bc9565b801561068d5780601f106106625761010080835404028352916020019161068d565b820191906000526020600020905b81548152906001019060200180831161067057829003601f168201915b5050505050908060020180546106a290611bc9565b80601f01602080910402602001604051908101604052809291908181526020018280546106ce90611bc9565b801561071b5780601f106106f05761010080835404028352916020019161071b565b820191906000526020600020905b8154815290600101906020018083116106fe57829003601f168201915b5050505050908060030160009054906101000a900473ffffffffffffffffffffffffffffffffffffffff169080600401805461075690611bc9565b80601f016020809104026020016040519081016040528092919081815260200182805461078290611bc9565b80156107cf5780601f106107a4576101008083540402835291602001916107cf565b820191906000526020600020905b8154815290600101906020018083116107b257829003601f168201915b5050505050908060050160009054906101000a900473ffffffffffffffffffffffffffffffffffffffff16908060060154905087565b6001600081548092919061081890611d4d565b9190505550600060015490506040518060e001604052808781526020018681526020018581526020018473ffffffffffffffffffffffffffffffffffffffff1681526020018381526020013373ffffffffffffffffffffffffffffffffffffffff1681526020018281525060008083815260200190815260200160002060008201518160000190816108aa9190611f41565b5060208201518160010190816108c09190611f41565b5060408201518160020190816108d69190611f41565b5060608201518160030160006101000a81548173ffffffffffffffffffffffffffffffffffffffff021916908373ffffffffffffffffffffffffffffffffffffffff16021790555060808201518160040190816109339190611f41565b5060a08201518160050160006101000a81548173ffffffffffffffffffffffffffffffffffffffff021916908373ffffffffffffffffffffffffffffffffffffffff16021790555060c082015181600601559050507fac8634c2f61ba57e7a482750a2deb2425b2d270af1b1b2ee5cc7383a5a0043808187336040516109bb93929190612013565b60405180910390a1505050505050565b60035481565b600360008154809291906109e490611d4d565b9190505550600060035490506040518060a001604052808481526020018381526020013373ffffffffffffffffffffffffffffffffffffffff16815260200160011515815260200182815250600260008381526020019081526020016000206000820151816000019081610a589190611f41565b506020820151816001015560408201518160020160006101000a81548173ffffffffffffffffffffffffffffffffffffffff021916908373ffffffffffffffffffffffffffffffffffffffff16021790555060608201518160020160146101000a81548160ff021916908315150217905550608082015181600301559050507f639f6821e15398c246cf1d911a9613565bf49f97137b42eee402d2dee6e27f5781848433604051610b0c9493929190612051565b60405180910390a1505050565b60015481565b6060600060015467ffffffffffffffff811115610b3f57610b3e61153b565b5b604051908082528060200260200182016040528015610b7857816020015b610b6561120d565b815260200190600190039081610b5d5790505b5090506000600190505b6001548111610ee3576000808281526020019081526020016000206040518060e0016040529081600082018054610bb890611bc9565b80601f0160208091040260200160405190810160405280929190818152602001828054610be490611bc9565b8015610c315780601f10610c0657610100808354040283529160200191610c31565b820191906000526020600020905b815481529060010190602001808311610c1457829003601f168201915b50505050508152602001600182018054610c4a90611bc9565b80601f0160208091040260200160405190810160405280929190818152602001828054610c7690611bc9565b8015610cc35780601f10610c9857610100808354040283529160200191610cc3565b820191906000526020600020905b815481529060010190602001808311610ca657829003601f168201915b50505050508152602001600282018054610cdc90611bc9565b80601f0160208091040260200160405190810160405280929190818152602001828054610d0890611bc9565b8015610d555780601f10610d2a57610100808354040283529160200191610d55565b820191906000526020600020905b815481529060010190602001808311610d3857829003601f168201915b505050505081526020016003820160009054906101000a900473ffffffffffffffffffffffffffffffffffffffff1673ffffffffffffffffffffffffffffffffffffffff1673ffffffffffffffffffffffffffffffffffffffff168152602001600482018054610dc490611bc9565b80601f0160208091040260200160405190810160405280929190818152602001828054610df090611bc9565b8015610e3d5780601f10610e1257610100808354040283529160200191610e3d565b820191906000526020600020905b815481529060010190602001808311610e2057829003601f168201915b505050505081526020016005820160009054906101000a900473ffffffffffffffffffffffffffffffffffffffff1673ffffffffffffffffffffffffffffffffffffffff1673ffffffffffffffffffffffffffffffffffffffff16815260200160068201548152505082600183610eb4919061209d565b81518110610ec557610ec46120d1565b5b60200260200101819052508080610edb90611d4d565b915050610b82565b508091505090565b3373ffffffffffffffffffffffffffffffffffffffff166002600084815260200190815260200160002060020160009054906101000a900473ffffffffffffffffffffffffffffffffffffffff1673ffffffffffffffffffffffffffffffffffffffff1614610f8f576040517f08c379a0000000000000000000000000000000000000000000000000000000008152600401610f8690612172565b60405180910390fd5b8060026000848152602001908152602001600020600101819055507fdd684099acbc659701d588d010c0c46b0f38f51a5d6487d991a396e600dcba368282604051610fdb929190612192565b60405180910390a15050565b6060600060035467ffffffffffffffff8111156110075761100661153b565b5b60405190808252806020026020018201604052801561104057816020015b61102d611276565b8152602001906001900390816110255790505b5090506000600190505b60035481116111c557600260008281526020019081526020016000206040518060a001604052908160008201805461108190611bc9565b80601f01602080910402602001604051908101604052809291908181526020018280546110ad90611bc9565b80156110fa5780601f106110cf576101008083540402835291602001916110fa565b820191906000526020600020905b8154815290600101906020018083116110dd57829003601f168201915b50505050508152602001600182015481526020016002820160009054906101000a900473ffffffffffffffffffffffffffffffffffffffff1673ffffffffffffffffffffffffffffffffffffffff1673ffffffffffffffffffffffffffffffffffffffff1681526020016002820160149054906101000a900460ff1615151515815260200160038201548152505082600183611196919061209d565b815181106111a7576111a66120d1565b5b602002602001018190525080806111bd90611d4d565b91505061104a565b508091505090565b5080546111d990611bc9565b6000825580601f106111eb575061120a565b601f01602090049060005260206000209081019061120991906112bd565b5b50565b6040518060e00160405280606081526020016060815260200160608152602001600073ffffffffffffffffffffffffffffffffffffffff16815260200160608152602001600073ffffffffffffffffffffffffffffffffffffffff168152602001600081525090565b6040518060a001604052806060815260200160008152602001600073ffffffffffffffffffffffffffffffffffffffff168152602001600015158152602001600081525090565b5b808211156112d65760008160009055506001016112be565b5090565b6000604051905090565b600080fd5b600080fd5b6000819050919050565b611301816112ee565b811461130c57600080fd5b50565b60008135905061131e816112f8565b92915050565b60006020828403121561133a576113396112e4565b5b60006113488482850161130f565b91505092915050565b600081519050919050565b600082825260208201905092915050565b60005b8381101561138b578082015181840152602081019050611370565b60008484015250505050565b6000601f19601f8301169050919050565b60006113b382611351565b6113bd818561135c565b93506113cd81856020860161136d565b6113d681611397565b840191505092915050565b6113ea816112ee565b82525050565b600073ffffffffffffffffffffffffffffffffffffffff82169050919050565b600061141b826113f0565b9050919050565b61142b81611410565b82525050565b60008115159050919050565b61144681611431565b82525050565b600060a082019050818103600083015261146681886113a8565b905061147560208301876113e1565b6114826040830186611422565b61148f606083018561143d565b61149c60808301846113e1565b9695505050505050565b600060e08201905081810360008301526114c0818a6113a8565b905081810360208301526114d481896113a8565b905081810360408301526114e881886113a8565b90506114f76060830187611422565b818103608083015261150981866113a8565b905061151860a0830185611422565b61152560c08301846113e1565b98975050505050505050565b600080fd5b600080fd5b7f4e487b7100000000000000000000000000000000000000000000000000000000600052604160045260246000fd5b61157382611397565b810181811067ffffffffffffffff821117156115925761159161153b565b5b80604052505050565b60006115a56112da565b90506115b1828261156a565b919050565b600067ffffffffffffffff8211156115d1576115d061153b565b5b6115da82611397565b9050602081019050919050565b82818337600083830152505050565b6000611609611604846115b6565b61159b565b90508281526020810184848401111561162557611624611536565b5b6116308482856115e7565b509392505050565b600082601f83011261164d5761164c611531565b5b813561165d8482602086016115f6565b91505092915050565b61166f81611410565b811461167a57600080fd5b50565b60008135905061168c81611666565b92915050565b600080600080600060a086880312156116ae576116ad6112e4565b5b600086013567ffffffffffffffff8111156116cc576116cb6112e9565b5b6116d888828901611638565b955050602086013567ffffffffffffffff8111156116f9576116f86112e9565b5b61170588828901611638565b945050604086013567ffffffffffffffff811115611726576117256112e9565b5b61173288828901611638565b93505060606117438882890161167d565b925050608086013567ffffffffffffffff811115611764576117636112e9565b5b61177088828901611638565b9150509295509295909350565b600060208201905061179260008301846113e1565b92915050565b600080604083850312156117af576117ae6112e4565b5b600083013567ffffffffffffffff8111156117cd576117cc6112e9565b5b6117d985828601611638565b92505060206117ea8582860161130f565b9150509250929050565b600081519050919050565b600082825260208201905092915050565b6000819050602082019050919050565b600082825260208201905092915050565b600061183c82611351565b6118468185611820565b935061185681856020860161136d565b61185f81611397565b840191505092915050565b61187381611410565b82525050565b611882816112ee565b82525050565b600060e08301600083015184820360008601526118a58282611831565b915050602083015184820360208601526118bf8282611831565b915050604083015184820360408601526118d98282611831565b91505060608301516118ee606086018261186a565b50608083015184820360808601526119068282611831565b91505060a083015161191b60a086018261186a565b5060c083015161192e60c0860182611879565b508091505092915050565b60006119458383611888565b905092915050565b6000602082019050919050565b6000611965826117f4565b61196f81856117ff565b93508360208202850161198185611810565b8060005b858110156119bd578484038952815161199e8582611939565b94506119a98361194d565b925060208a01995050600181019050611985565b50829750879550505050505092915050565b600060208201905081810360008301526119e9818461195a565b905092915050565b60008060408385031215611a0857611a076112e4565b5b6000611a168582860161130f565b9250506020611a278582860161130f565b9150509250929050565b600081519050919050565b600082825260208201905092915050565b6000819050602082019050919050565b611a6681611431565b82525050565b600060a0830160008301518482036000860152611a898282611831565b9150506020830151611a9e6020860182611879565b506040830151611ab1604086018261186a565b506060830151611ac46060860182611a5d565b506080830151611ad76080860182611879565b508091505092915050565b6000611aee8383611a6c565b905092915050565b6000602082019050919050565b6000611b0e82611a31565b611b188185611a3c565b935083602082028501611b2a85611a4d565b8060005b85811015611b665784840389528151611b478582611ae2565b9450611b5283611af6565b925060208a01995050600181019050611b2e565b50829750879550505050505092915050565b60006020820190508181036000830152611b928184611b03565b905092915050565b7f4e487b7100000000000000000000000000000000000000000000000000000000600052602260045260246000fd5b60006002820490506001821680611be157607f821691505b602082108103611bf457611bf3611b9a565b5b50919050565b7f536f6c6f20656c2070726f706965746172696f20707565646520706f6e65722060008201527f6c6120616c6572746120656e2070617573610000000000000000000000000000602082015250565b6000611c5660328361135c565b9150611c6182611bfa565b604082019050919050565b60006020820190508181036000830152611c8581611c49565b9050919050565b7f536f6c6f20656c2070726f706965746172696f20707565646520656c696d696e60008201527f6172206c6120616c657274610000000000000000000000000000000000000000602082015250565b6000611ce8602c8361135c565b9150611cf382611c8c565b604082019050919050565b60006020820190508181036000830152611d1781611cdb565b9050919050565b7f4e487b7100000000000000000000000000000000000000000000000000000000600052601160045260246000fd5b6000611d58826112ee565b91507fffffffffffffffffffffffffffffffffffffffffffffffffffffffffffffffff8203611d8a57611d89611d1e565b5b600182019050919050565b60008190508160005260206000209050919050565b60006020601f8301049050919050565b600082821b905092915050565b600060088302611df77fffffffffffffffffffffffffffffffffffffffffffffffffffffffffffffffff82611dba565b611e018683611dba565b95508019841693508086168417925050509392505050565b6000819050919050565b6000611e3e611e39611e34846112ee565b611e19565b6112ee565b9050919050565b6000819050919050565b611e5883611e23565b611e6c611e6482611e45565b848454611dc7565b825550505050565b600090565b611e81611e74565b611e8c818484611e4f565b505050565b5b81811015611eb057611ea5600082611e79565b600181019050611e92565b5050565b601f821115611ef557611ec681611d95565b611ecf84611daa565b81016020851015611ede578190505b611ef2611eea85611daa565b830182611e91565b50505b505050565b600082821c905092915050565b6000611f1860001984600802611efa565b1980831691505092915050565b6000611f318383611f07565b9150826002028217905092915050565b611f4a82611351565b67ffffffffffffffff811115611f6357611f6261153b565b5b611f6d8254611bc9565b611f78828285611eb4565b600060209050601f831160018114611fab5760008415611f99578287015190505b611fa38582611f25565b86555061200b565b601f198416611fb986611d95565b60005b82811015611fe157848901518255600182019150602085019450602081019050611fbc565b86831015611ffe5784890151611ffa601f891682611f07565b8355505b6001600288020188555050505b505050505050565b600060608201905061202860008301866113e1565b818103602083015261203a81856113a8565b90506120496040830184611422565b949350505050565b600060808201905061206660008301876113e1565b818103602083015261207881866113a8565b905061208760408301856113e1565b6120946060830184611422565b95945050505050565b60006120a8826112ee565b91506120b3836112ee565b92508282039050818111156120cb576120ca611d1e565b5b92915050565b7f4e487b7100000000000000000000000000000000000000000000000000000000600052603260045260246000fd5b7f536f6c6f20656c2070726f706965746172696f2070756564652065646974617260008201527f206c6120616c6572746100000000000000000000000000000000000000000000602082015250565b600061215c602a8361135c565b915061216782612100565b604082019050919050565b6000602082019050818103600083015261218b8161214f565b9050919050565b60006040820190506121a760008301856113e1565b6121b460208301846113e1565b939250505056fea2646970667358221220e907bfbe4e7c18c19a04c0e9c89113a913469a83194637c5ee142460cbd8d07064736f6c63430008110033",
  "linkReferences": {},
  "deployedLinkReferences": {}
}